:10000E001201ECD2A9D2AFD28C1201E11201B8E4E6
:10001E00F50AF50BF50CF50DF508F5091201601250
:10002E0001C71200F31201C71200031201C7120119
:10003E001B1201C77F017E001200BC12017DEF4E24
:10004E0060F97F027E001200BC1200F37F037E0077
:10005E001200BC1200031201C77F047E001200BC06
:08006E0012011B1201C780CC36
:03000B000200767A
:10007600C0E0C0D0758CFE758A3E050BE50B70029C
:10008600050AB4E815E50AB40310750A00750B00F5
:10009600050DE50D7002050CB2B7C3E50D9409E533
:1000A6000C9400400C750C00750D00750800750960
:0600B60001D0D0D0E032C1
:0A01EC00758901758CFE758A3E22AC
:0B01E100E4F5B175B2FFD2B0D2B1223C
:0F01B800E4F59175920FD290D291D292D2932208
:10014300EF1F70011E144E6013E4FCFDC3ED9458C1
:0C015300EC940250EB0DBD00010C80F09C
:01015F00227D
:0E01C7007FE87E031201437FE87E03020143BE
:10017D00E4FBFA20940A7F64FE1201432094010BE4
:04018D00AE02AF030C
:01019100224B
:1000BC00EE702BEF24FE600E1460111460172403F5
:1000CC00701CC290801AD290C2918016D290D2919C
:1000DC00C292D29322D290D291D292C29322D29037
:0700EC00D291D292D29322BF
:1000F300D2B0C2B1E4F50AF50BF50CF50DF508F530
:1001030009C3E50D9405E50C940040F5120192EF47
:080113004E60F9D2B0D2B12216
:10011B00C2B0D2B1E4F50AF50BF50CF50DF508F507
:10012B0009C3E50D9405E50C940040F51201A5EF0C
:08013B004E60F9D2B0D2B122EE
:05000300D2B0D2B122D1
:10016000C2B0D2B1E4F50AF50BF50CF50DF508F5C2
:0D017000091201A5EF4E60F9D2B0D2B12204
:10019200E4FFFE309708E5096401450870047E001B
:0201A2007F01DB
:0101A4002238
:1001A500E4FFFE309608E5096401450870047E0009
:0201B5007F01C8
:0101B7002225
:030000000201D525
:0C01D500787FE4F6D8FD75810D02000E65
:00000001FF
