:10000E0012020AD2A9D2AFD28C1201FF1201E4E47D
:10001E00F50AF50BF50CF50DF508F5091201B212FE
:10002E000003120145120003120214120003120102
:10003E006D1200037F017E001200BC1201CFEF4E45
:10004E0060F97F027E001200BC1201457F037E0024
:10005E001200BC1202141200037F047E001200BCB8
:08006E0012016D12000380CCA9
:03000B000200767A
:10007600C0E0C0D0758CFE758A3E050BE50B70029C
:10008600050AB4E815E50AB40310750A00750B00F5
:10009600050DE50D7002050CB2B7C3E50D940FE52D
:1000A6000C9400400C750C00750D00750800750960
:0600B60001D0D0D0E032C1
:0A020A00758901758CFE758A3E228D
:0B01FF00E4F5B175B2FFD2B0D2B1221E
:0F01E400E4F59175920FD290D291D292D29322DC
:10019500EF1F70011E144E6013E4FCFDC3ED94586F
:0C01A500EC940250EB0DBD00010C80F04A
:0101B100222B
:070003007FE87E0302019576
:1001CF00E4FBFA20940A7F64FE1201952094010B40
:0401DF00AE02AF03BA
:0101E30022F9
:1000BC00EE702BEF24FE600E1460111460172403F5
:1000CC00701CC290801AD290C2918016D290D2919C
:1000DC00C292D29322D290D291D292C29322D29037
:0700EC00D291D292D29322BF
:10014500D2B0C2B1E4F50AF50BF50CF50DF508F5DD
:1001550009C3E50D9404E50C940040F51200F3EF96
:080165004E60F9D2B0D2B122C4
:10016D00C2B0D2B1E4F50AF50BF50CF50DF508F5B5
:10017D0009C3E50D9404E50C940040F512011CEF44
:08018D004E60F9D2B0D2B1229C
:05021400D2B0D2B122BE
:1001B200C2B0D2B1E4F50AF50BF50CF50DF508F570
:0D01C2000912011CEF4E60F9D2B0D2B1223B
:1000F300E4FBFA209708E5096401450870167F645C
:100103007E00120195209708E509640145087004F3
:080113007A007B01AE02AF038C
:01011B0022C1
:10011C00E4FBFA209608E5096401450870167F6433
:10012C007E00120195209608E509640145087004CB
:08013C007A007B01AE02AF0363
:010144002298
:030000000201F307
:0C01F300787FE4F6D8FD75810D02000E47
:00000001FF
