:0300000002018179
:0C018100787FE4F6D8FD75810D02000EB9
:10000E001201A3D2A9D2AFD28C12018D120164E4D7
:10001E00F508F509F50CF50DF50AF50B1201987FAB
:10002E00017E001200A3120129EF4E60F97F027EBD
:10003E00001200A31200F77F037E001200A312002D
:10004E00031201737F047E001200A312011012012D
:03005E007380CCE0
:03000B000200618F
:10006100C0E0C0D0758C3C758AB00509E509700205
:10007100050864144508700CF508F509050DE50D32
:100081007002050CC3E50D9414E50C9400400C7549
:100091000C00750D00750A00750B01B2B7D0D0D0F8
:0200A100E0324B
:0A01A300758901758C3C758AB02245
:0B018D00E4F5B175B2FFD2B0D2B12290
:0F016400E4F59175920FC290C291C292C293229C
:1000DA00EF1F70011E144E6013E4FCFDC3ED94582B
:0C00EA00EC940250EB0DBD00010C80F006
:0100F60022E7
:0E0173007FE87E031200DA7FE87E030200DAE6
:10012900E4FBFA20970A7F64FE1200DA2097010B9C
:04013900AE02AF0360
:01013D00229F
:1000A300EE702BEF24FE600E14601114601724030E
:1000B300701CD290801AC290D2918016C290C291C5
:1000C300D292C29322C290C291C292D29322C29080
:0700D300C291C292C2932208
:1000F700D2B0C2B1E4F50CF50DF50AF50B12013ECD
:09010700EF4E60F9D2B0D2B12232
:10011000C2B0D2B1E4F50CF50DF50AF50B120151A0
:09012000EF4E60F9D2B0D2B12219
:05000300D2B0D2B122D1
:0B019800120151EF4E70031201102203
:10013E00E4FFFE309408E50B6401450A70047E006E
:02014E007F012F
:01015000228C
:10015100E4FFFE309508E50B6401450A70047E005A
:020161007F011C
:010163002279
:00000001FF
